{
  "contractName": "Mortal",
  "abi": [
    {
      "constant": true,
      "inputs": [],
      "name": "owner",
      "outputs": [
        {
          "name": "",
          "type": "address"
        }
      ],
      "payable": false,
      "stateMutability": "view",
      "type": "function"
    },
    {
      "constant": false,
      "inputs": [
        {
          "name": "newOwner",
          "type": "address"
        }
      ],
      "name": "transferOwnership",
      "outputs": [],
      "payable": false,
      "stateMutability": "nonpayable",
      "type": "function"
    },
    {
      "anonymous": false,
      "inputs": [
        {
          "indexed": true,
          "name": "previousOwner",
          "type": "address"
        },
        {
          "indexed": true,
          "name": "newOwner",
          "type": "address"
        }
      ],
      "name": "OwnershipTransferred",
      "type": "event"
    },
    {
      "constant": false,
      "inputs": [],
      "name": "kill",
      "outputs": [],
      "payable": false,
      "stateMutability": "nonpayable",
      "type": "function"
    }
  ],
  "bytecode": "0x6060604052336000806101000a81548173ffffffffffffffffffffffffffffffffffffffff021916908373ffffffffffffffffffffffffffffffffffffffff16021790555061033a806100536000396000f300606060405260043610610057576000357c0100000000000000000000000000000000000000000000000000000000900463ffffffff16806341c0e1b51461005c5780638da5cb5b14610071578063f2fde38b146100c6575b600080fd5b341561006757600080fd5b61006f6100ff565b005b341561007c57600080fd5b610084610194565b604051808273ffffffffffffffffffffffffffffffffffffffff1673ffffffffffffffffffffffffffffffffffffffff16815260200191505060405180910390f35b34156100d157600080fd5b6100fd600480803573ffffffffffffffffffffffffffffffffffffffff169060200190919050506101b9565b005b6000809054906101000a900473ffffffffffffffffffffffffffffffffffffffff1673ffffffffffffffffffffffffffffffffffffffff163373ffffffffffffffffffffffffffffffffffffffff1614151561015a57600080fd5b6000809054906101000a900473ffffffffffffffffffffffffffffffffffffffff1673ffffffffffffffffffffffffffffffffffffffff16ff5b6000809054906101000a900473ffffffffffffffffffffffffffffffffffffffff1681565b6000809054906101000a900473ffffffffffffffffffffffffffffffffffffffff1673ffffffffffffffffffffffffffffffffffffffff163373ffffffffffffffffffffffffffffffffffffffff1614151561021457600080fd5b600073ffffffffffffffffffffffffffffffffffffffff168173ffffffffffffffffffffffffffffffffffffffff161415151561025057600080fd5b8073ffffffffffffffffffffffffffffffffffffffff166000809054906101000a900473ffffffffffffffffffffffffffffffffffffffff1673ffffffffffffffffffffffffffffffffffffffff167f8be0079c531659141344cd1fd0a4f28419497f9722a3daafe3b4186f6b6457e060405160405180910390a3806000806101000a81548173ffffffffffffffffffffffffffffffffffffffff021916908373ffffffffffffffffffffffffffffffffffffffff160217905550505600a165627a7a723058206c6d20a3f25761959979e1f42347ec6071cc6551bcec9c6c48550016141a3b360029",
  "source": "pragma solidity ^0.4.19;\n\ncontract Ownable {\n  address public owner;\n\n  event OwnershipTransferred(address indexed previousOwner, address indexed newOwner);\n\n\n  /**\n   * @dev The Ownable constructor sets the original `owner` of the contract to the sender\n   * account.\n   */\n  function Ownable() public {\n    owner = msg.sender;\n  }\n\n  /**\n   * @dev Throws if called by any account other than the owner.\n   */\n  modifier onlyOwner() {\n    require(msg.sender == owner);\n    _;\n  }\n\n  /**\n   * @dev Allows the current owner to transfer control of the contract to a newOwner.\n   * @param newOwner The address to transfer ownership to.\n   */\n  function transferOwnership(address newOwner) public onlyOwner {\n    require(newOwner != address(0));\n    emit OwnershipTransferred(owner, newOwner);\n    owner = newOwner;\n  }\n}\n\ncontract Mortal is Ownable {\n    function kill() public onlyOwner {\n        selfdestruct(owner);\n    }\n}\n\ncontract Xslot is Mortal {\n    enum GameResult {WON,DRAW,LOST}\n\n    modifier onlyUser() {\n        if (tx.origin == msg.sender) {\n            _;\n        } else {\n            revert();\n        }\n    }\n\n    Game[] public games;                                // games\n    mapping (address => uint) private balances;         // balances per address\n\n    uint public spinBet = 100 finney;\n\n    bytes32 private seed;\n    uint private nonce = 1;\n\n    struct Game {\n      address player;\n      uint id;\n      uint amount;\n      GameResult result;\n      uint32 number;\n      uint prize;\n      bytes32 hash;\n      uint blockNumber;\n    }\n\n    event SlotSpin (\n      address indexed player,\n      uint indexed gameId,\n      uint amount,\n      uint32 number,\n      uint prize,\n      GameResult result\n    );\n\n    function Xslot() public {\n      owner = msg.sender;\n    }\n\n    function () external payable {\n\n    }\n\n    function _getRandomNum(bytes32 hash) onlyUser internal returns (uint32) {\n      nonce++;\n      seed = keccak256(now, nonce);\n      return uint32(keccak256(hash, seed)) % 1000;\n    }\n\n    function _createNewGame() onlyUser internal returns (Game) {\n      uint gameId = games.length;\n      Game memory newGame;\n\n      newGame.id = gameId;\n      newGame.player = msg.sender;\n      newGame.amount = msg.value;\n\n      newGame.blockNumber = block.number;\n      newGame.hash = block.blockhash(block.number);\n      newGame.number = _getRandomNum(newGame.hash);\n\n      uint8 firstNum = uint8(newGame.number / 100);\n      uint8 thirdNum = uint8(newGame.number % 10);\n      uint8 secondNum = uint8(newGame.number % 100 / 10);\n\n      if(firstNum == secondNum && firstNum == thirdNum) {\n        newGame.result = GameResult.WON;\n        newGame.prize = getBalance();\n      } else if(firstNum == secondNum || secondNum == thirdNum || firstNum == thirdNum) {\n        newGame.result = GameResult.DRAW;\n        newGame.prize = newGame.amount;\n      } else {\n        newGame.result = GameResult.LOST;\n        newGame.prize = 0;\n      }\n      games.push(newGame);\n      return games[gameId];\n    }\n\n    function spin() onlyUser public payable returns (GameResult,uint32,uint) {\n      require(msg.value >= spinBet);\n\n      Game memory game = _createNewGame();\n\n      if(game.prize > 0) {\n        game.player.transfer(game.prize);\n      }\n      emit SlotSpin(game.player,game.id,game.amount,game.number,game.prize,game.result);\n      return (game.result, game.number, game.prize);\n    }\n\n    function getBalance() public view returns (uint) {\n        return address(this).balance;\n    }\n\n    function setSpinBet(uint newBet) onlyOwner public {\n      spinBet = newBet * 1 finney;\n    }\n\n    function ownerDeposit() onlyOwner public payable {\n      require(msg.value >= 0);\n    }\n\n    function ownerWithdraw(uint amount) onlyOwner public {\n        require(amount <= address(this).balance);\n        msg.sender.transfer(amount);\n    }\n}\n",
  "sourcePath": "/Users/matthewxu/eth_projects/xslot/contracts/Xslot.sol",
  "compiler": {
    "name": "solc",
    "version": "0.4.21+commit.dfe3193c.Emscripten.clang"
  },
  "schemaVersion": "2.0.0",
  "updatedAt": "2018-04-08T21:03:18.954Z"
}