{
  "contractName": "Xslot",
  "abi": [
    {
      "constant": true,
      "inputs": [
        {
          "name": "",
          "type": "uint256"
        }
      ],
      "name": "games",
      "outputs": [
        {
          "name": "player",
          "type": "address"
        },
        {
          "name": "id",
          "type": "uint256"
        },
        {
          "name": "amount",
          "type": "uint256"
        },
        {
          "name": "result",
          "type": "uint8"
        },
        {
          "name": "number",
          "type": "uint32"
        },
        {
          "name": "prize",
          "type": "uint256"
        },
        {
          "name": "hash",
          "type": "bytes32"
        },
        {
          "name": "blockNumber",
          "type": "uint256"
        }
      ],
      "payable": false,
      "stateMutability": "view",
      "type": "function"
    },
    {
      "constant": false,
      "inputs": [],
      "name": "kill",
      "outputs": [],
      "payable": false,
      "stateMutability": "nonpayable",
      "type": "function"
    },
    {
      "constant": true,
      "inputs": [],
      "name": "spinBet",
      "outputs": [
        {
          "name": "",
          "type": "uint256"
        }
      ],
      "payable": false,
      "stateMutability": "view",
      "type": "function"
    },
    {
      "constant": true,
      "inputs": [],
      "name": "owner",
      "outputs": [
        {
          "name": "",
          "type": "address"
        }
      ],
      "payable": false,
      "stateMutability": "view",
      "type": "function"
    },
    {
      "constant": false,
      "inputs": [
        {
          "name": "newOwner",
          "type": "address"
        }
      ],
      "name": "transferOwnership",
      "outputs": [],
      "payable": false,
      "stateMutability": "nonpayable",
      "type": "function"
    },
    {
      "inputs": [],
      "payable": false,
      "stateMutability": "nonpayable",
      "type": "constructor"
    },
    {
      "payable": true,
      "stateMutability": "payable",
      "type": "fallback"
    },
    {
      "anonymous": false,
      "inputs": [
        {
          "indexed": true,
          "name": "player",
          "type": "address"
        },
        {
          "indexed": true,
          "name": "gameId",
          "type": "uint256"
        },
        {
          "indexed": false,
          "name": "amount",
          "type": "uint256"
        },
        {
          "indexed": false,
          "name": "number",
          "type": "uint32"
        },
        {
          "indexed": false,
          "name": "prize",
          "type": "uint256"
        },
        {
          "indexed": false,
          "name": "result",
          "type": "uint8"
        }
      ],
      "name": "SlotSpin",
      "type": "event"
    },
    {
      "anonymous": false,
      "inputs": [
        {
          "indexed": true,
          "name": "previousOwner",
          "type": "address"
        },
        {
          "indexed": true,
          "name": "newOwner",
          "type": "address"
        }
      ],
      "name": "OwnershipTransferred",
      "type": "event"
    },
    {
      "constant": false,
      "inputs": [],
      "name": "spin",
      "outputs": [
        {
          "name": "",
          "type": "uint8"
        },
        {
          "name": "",
          "type": "uint32"
        },
        {
          "name": "",
          "type": "uint256"
        }
      ],
      "payable": true,
      "stateMutability": "payable",
      "type": "function"
    },
    {
      "constant": true,
      "inputs": [],
      "name": "getBalance",
      "outputs": [
        {
          "name": "",
          "type": "uint256"
        }
      ],
      "payable": false,
      "stateMutability": "view",
      "type": "function"
    },
    {
      "constant": false,
      "inputs": [
        {
          "name": "newBet",
          "type": "uint256"
        }
      ],
      "name": "setSpinBet",
      "outputs": [],
      "payable": false,
      "stateMutability": "nonpayable",
      "type": "function"
    },
    {
      "constant": false,
      "inputs": [],
      "name": "ownerDeposit",
      "outputs": [],
      "payable": true,
      "stateMutability": "payable",
      "type": "function"
    },
    {
      "constant": false,
      "inputs": [
        {
          "name": "amount",
          "type": "uint256"
        }
      ],
      "name": "ownerWithdraw",
      "outputs": [],
      "payable": false,
      "stateMutability": "nonpayable",
      "type": "function"
    }
  ],
  "bytecode": "0x606060405267016345785d8a00006003556001600555341561002057600080fd5b336000806101000a81548173ffffffffffffffffffffffffffffffffffffffff021916908373ffffffffffffffffffffffffffffffffffffffff160217905550336000806101000a81548173ffffffffffffffffffffffffffffffffffffffff021916908373ffffffffffffffffffffffffffffffffffffffff160217905550610f37806100af6000396000f3006060604052600436106100a4576000357c0100000000000000000000000000000000000000000000000000000000900463ffffffff1680630d23afc1146100a6578063117a5b90146100c957806312065fe01461017f57806333f707d1146101a857806341c0e1b5146101cb5780637b1aa45f146101e05780637c067ddc146101ea5780638da5cb5b14610213578063f0acd7d514610268578063f2fde38b146102ae575b005b34156100b157600080fd5b6100c760048080359060200190919050506102e7565b005b34156100d457600080fd5b6100ea6004808035906020019091905050610355565b604051808973ffffffffffffffffffffffffffffffffffffffff1673ffffffffffffffffffffffffffffffffffffffff16815260200188815260200187815260200186600281111561013857fe5b60ff1681526020018563ffffffff1663ffffffff16815260200184815260200183600019166000191681526020018281526020019850505050505050505060405180910390f35b341561018a57600080fd5b6101926103e9565b6040518082815260200191505060405180910390f35b34156101b357600080fd5b6101c96004808035906020019091905050610408565b005b34156101d657600080fd5b6101de6104cc565b005b6101e8610561565b005b34156101f557600080fd5b6101fd6105ce565b6040518082815260200191505060405180910390f35b341561021e57600080fd5b6102266105d4565b604051808273ffffffffffffffffffffffffffffffffffffffff1673ffffffffffffffffffffffffffffffffffffffff16815260200191505060405180910390f35b6102706105f9565b6040518084600281111561028057fe5b60ff1681526020018363ffffffff1663ffffffff168152602001828152602001935050505060405180910390f35b34156102b957600080fd5b6102e5600480803573ffffffffffffffffffffffffffffffffffffffff16906020019091905050610769565b005b6000809054906101000a900473ffffffffffffffffffffffffffffffffffffffff1673ffffffffffffffffffffffffffffffffffffffff163373ffffffffffffffffffffffffffffffffffffffff1614151561034257600080fd5b66038d7ea4c68000810260038190555050565b60018181548110151561036457fe5b90600052602060002090600702016000915090508060000160009054906101000a900473ffffffffffffffffffffffffffffffffffffffff16908060010154908060020154908060030160009054906101000a900460ff16908060030160019054906101000a900463ffffffff16908060040154908060050154908060060154905088565b60003073ffffffffffffffffffffffffffffffffffffffff1631905090565b6000809054906101000a900473ffffffffffffffffffffffffffffffffffffffff1673ffffffffffffffffffffffffffffffffffffffff163373ffffffffffffffffffffffffffffffffffffffff1614151561046357600080fd5b3073ffffffffffffffffffffffffffffffffffffffff1631811115151561048957600080fd5b3373ffffffffffffffffffffffffffffffffffffffff166108fc829081150290604051600060405180830381858888f1935050505015156104c957600080fd5b50565b6000809054906101000a900473ffffffffffffffffffffffffffffffffffffffff1673ffffffffffffffffffffffffffffffffffffffff163373ffffffffffffffffffffffffffffffffffffffff1614151561052757600080fd5b6000809054906101000a900473ffffffffffffffffffffffffffffffffffffffff1673ffffffffffffffffffffffffffffffffffffffff16ff5b6000809054906101000a900473ffffffffffffffffffffffffffffffffffffffff1673ffffffffffffffffffffffffffffffffffffffff163373ffffffffffffffffffffffffffffffffffffffff161415156105bc57600080fd5b600034101515156105cc57600080fd5b565b60035481565b6000809054906101000a900473ffffffffffffffffffffffffffffffffffffffff1681565b6000806000610606610dd0565b3373ffffffffffffffffffffffffffffffffffffffff163273ffffffffffffffffffffffffffffffffffffffff16141561075e57600354341015151561064b57600080fd5b6106536108be565b905060008160a0015111156106ab57806000015173ffffffffffffffffffffffffffffffffffffffff166108fc8260a001519081150290604051600060405180830381858888f1935050505015156106aa57600080fd5b5b8060200151816000015173ffffffffffffffffffffffffffffffffffffffff167f68f269e5a7293a275d2ee28d14131fd805e48f0c2e03ec82e16a170d03ee9f5d836040015184608001518560a001518660600151604051808581526020018463ffffffff1663ffffffff16815260200183815260200182600281111561072e57fe5b60ff16815260200194505050505060405180910390a3806060015181608001518260a00151935093509350610763565b600080fd5b50909192565b6000809054906101000a900473ffffffffffffffffffffffffffffffffffffffff1673ffffffffffffffffffffffffffffffffffffffff163373ffffffffffffffffffffffffffffffffffffffff161415156107c457600080fd5b600073ffffffffffffffffffffffffffffffffffffffff168173ffffffffffffffffffffffffffffffffffffffff161415151561080057600080fd5b8073ffffffffffffffffffffffffffffffffffffffff166000809054906101000a900473ffffffffffffffffffffffffffffffffffffffff1673ffffffffffffffffffffffffffffffffffffffff167f8be0079c531659141344cd1fd0a4f28419497f9722a3daafe3b4186f6b6457e060405160405180910390a3806000806101000a81548173ffffffffffffffffffffffffffffffffffffffff021916908373ffffffffffffffffffffffffffffffffffffffff16021790555050565b6108c6610dd0565b60006108d0610dd0565b60008060003373ffffffffffffffffffffffffffffffffffffffff163273ffffffffffffffffffffffffffffffffffffffff161415610cf95760018054905094508484602001818152505033846000019073ffffffffffffffffffffffffffffffffffffffff16908173ffffffffffffffffffffffffffffffffffffffff168152505034846040018181525050438460e001818152505043408460c0019060001916908160001916815250506109898460c00151610d06565b846080019063ffffffff16908163ffffffff16815250506064846080015163ffffffff168115156109b657fe5b049250600a846080015163ffffffff168115156109cf57fe5b069150600a6064856080015163ffffffff168115156109ea57fe5b0663ffffffff168115156109fa57fe5b0490508060ff168360ff16148015610a1757508160ff168360ff16145b15610a5557600084606001906002811115610a2e57fe5b90816002811115610a3b57fe5b81525050610a476103e9565b8460a0018181525050610ae9565b8060ff168360ff161480610a6e57508160ff168160ff16145b80610a7e57508160ff168360ff16145b15610ab957600184606001906002811115610a9557fe5b90816002811115610aa257fe5b8152505083604001518460a0018181525050610ae8565b600284606001906002811115610acb57fe5b90816002811115610ad857fe5b8152505060008460a00181815250505b5b60018054806001018281610afd9190610e40565b9160005260206000209060070201600086909190915060008201518160000160006101000a81548173ffffffffffffffffffffffffffffffffffffffff021916908373ffffffffffffffffffffffffffffffffffffffff160217905550602082015181600101556040820151816002015560608201518160030160006101000a81548160ff02191690836002811115610b9257fe5b021790555060808201518160030160016101000a81548163ffffffff021916908363ffffffff16021790555060a0820151816004015560c0820151816005019060001916905560e08201518160060155505050600185815481101515610bf457fe5b906000526020600020906007020161010060405190810160405290816000820160009054906101000a900473ffffffffffffffffffffffffffffffffffffffff1673ffffffffffffffffffffffffffffffffffffffff1673ffffffffffffffffffffffffffffffffffffffff16815260200160018201548152602001600282015481526020016003820160009054906101000a900460ff166002811115610c9757fe5b6002811115610ca257fe5b81526020016003820160019054906101000a900463ffffffff1663ffffffff1663ffffffff168152602001600482015481526020016005820154600019166000191681526020016006820154815250509550610cfe565b600080fd5b505050505090565b60003373ffffffffffffffffffffffffffffffffffffffff163273ffffffffffffffffffffffffffffffffffffffff161415610dc6576005600081548092919060010191905055504260055460405180838152602001828152602001925050506040518091039020600481600019169055506103e88260045460405180836000191660001916815260200182600019166000191681526020019250505060405180910390206001900463ffffffff16811515610dbe57fe5b069050610dcb565b600080fd5b919050565b61010060405190810160405280600073ffffffffffffffffffffffffffffffffffffffff168152602001600081526020016000815260200160006002811115610e1557fe5b8152602001600063ffffffff1681526020016000815260200160008019168152602001600081525090565b815481835581811511610e6d57600702816007028360005260206000209182019101610e6c9190610e72565b5b505050565b610f0891905b80821115610f0457600080820160006101000a81549073ffffffffffffffffffffffffffffffffffffffff0219169055600182016000905560028201600090556003820160006101000a81549060ff02191690556003820160016101000a81549063ffffffff021916905560048201600090556005820160009055600682016000905550600701610e78565b5090565b905600a165627a7a7230582061523d401bf4387cf7c53a0ef3560f23522d4dfda5e3966bf581b2236b9cb6330029",
  "source": "pragma solidity ^0.4.19;\n\ncontract Ownable {\n  address public owner;\n\n  event OwnershipTransferred(address indexed previousOwner, address indexed newOwner);\n\n\n  /**\n   * @dev The Ownable constructor sets the original `owner` of the contract to the sender\n   * account.\n   */\n  function Ownable() public {\n    owner = msg.sender;\n  }\n\n  /**\n   * @dev Throws if called by any account other than the owner.\n   */\n  modifier onlyOwner() {\n    require(msg.sender == owner);\n    _;\n  }\n\n  /**\n   * @dev Allows the current owner to transfer control of the contract to a newOwner.\n   * @param newOwner The address to transfer ownership to.\n   */\n  function transferOwnership(address newOwner) public onlyOwner {\n    require(newOwner != address(0));\n    emit OwnershipTransferred(owner, newOwner);\n    owner = newOwner;\n  }\n}\n\ncontract Mortal is Ownable {\n    function kill() public onlyOwner {\n        selfdestruct(owner);\n    }\n}\n\ncontract Xslot is Mortal {\n    enum GameResult {WON,DRAW,LOST}\n\n    modifier onlyUser() {\n        if (tx.origin == msg.sender) {\n            _;\n        } else {\n            revert();\n        }\n    }\n\n    Game[] public games;                                // games\n    mapping (address => uint) private balances;         // balances per address\n\n    uint public spinBet = 100 finney;\n\n    bytes32 private seed;\n    uint private nonce = 1;\n\n    struct Game {\n      address player;\n      uint id;\n      uint amount;\n      GameResult result;\n      uint32 number;\n      uint prize;\n      bytes32 hash;\n      uint blockNumber;\n    }\n\n    event SlotSpin (\n      address indexed player,\n      uint indexed gameId,\n      uint amount,\n      uint32 number,\n      uint prize,\n      GameResult result\n    );\n\n    function Xslot() public {\n      owner = msg.sender;\n    }\n\n    function () external payable {\n\n    }\n\n    function _getRandomNum(bytes32 hash) onlyUser internal returns (uint32) {\n      nonce++;\n      seed = keccak256(now, nonce);\n      return uint32(keccak256(hash, seed)) % 1000;\n    }\n\n    function _createNewGame() onlyUser internal returns (Game) {\n      uint gameId = games.length;\n      Game memory newGame;\n\n      newGame.id = gameId;\n      newGame.player = msg.sender;\n      newGame.amount = msg.value;\n\n      newGame.blockNumber = block.number;\n      newGame.hash = block.blockhash(block.number);\n      newGame.number = _getRandomNum(newGame.hash);\n\n      uint8 firstNum = uint8(newGame.number / 100);\n      uint8 thirdNum = uint8(newGame.number % 10);\n      uint8 secondNum = uint8(newGame.number % 100 / 10);\n\n      if(firstNum == secondNum && firstNum == thirdNum) {\n        newGame.result = GameResult.WON;\n        newGame.prize = getBalance();\n      } else if(firstNum == secondNum || secondNum == thirdNum || firstNum == thirdNum) {\n        newGame.result = GameResult.DRAW;\n        newGame.prize = newGame.amount;\n      } else {\n        newGame.result = GameResult.LOST;\n        newGame.prize = 0;\n      }\n      games.push(newGame);\n      return games[gameId];\n    }\n\n    function spin() onlyUser public payable returns (GameResult,uint32,uint) {\n      require(msg.value >= spinBet);\n\n      Game memory game = _createNewGame();\n\n      if(game.prize > 0) {\n        game.player.transfer(game.prize);\n      }\n      emit SlotSpin(game.player,game.id,game.amount,game.number,game.prize,game.result);\n      return (game.result, game.number, game.prize);\n    }\n\n    function getBalance() public view returns (uint) {\n        return address(this).balance;\n    }\n\n    function setSpinBet(uint newBet) onlyOwner public {\n      spinBet = newBet * 1 finney;\n    }\n\n    function ownerDeposit() onlyOwner public payable {\n      require(msg.value >= 0);\n    }\n\n    function ownerWithdraw(uint amount) onlyOwner public {\n        require(amount <= address(this).balance);\n        msg.sender.transfer(amount);\n    }\n}\n",
  "sourcePath": "/Users/matthewxu/eth_projects/xslot/contracts/Xslot.sol",
  "compiler": {
    "name": "solc",
    "version": "0.4.21+commit.dfe3193c.Emscripten.clang"
  },
  "schemaVersion": "2.0.0",
  "updatedAt": "2018-04-08T21:03:35.383Z"
}